:020000040800F2
:10000000FCFF00201D120000011200000112000080
:100010000112000001120000011200000112000094
:100020000112000001120000011200000112000084
:100030000112000001120000011200000112000074
:100040000112000001120000011200000112000064
:100050000112000001120000011200000112000054
:100060000112000001120000011200000112000044
:100070000112000001120000011200000112000034
:100080000112000001120000011200000112000024
:100090000112000001120000011200000112000014
:1000A0000112000001120000011200000112000004
:1000B00001120000011200000112000001120000F4
:1000C00001120000011200000112000001120000E4
:1000D00001120000011200000112000001120000D4
:1000E00001120000011200000112000001120000C4
:1000F00001120000011200000112000001120000B4
:1001000001120000011200000112000001120000A3
:100110000112000001120000011200000112000093
:100120000112000001120000011200000112000083
:100130000112000001120000011200000112000073
:100140000112000001120000011200000112000063
:1001500081B0194900EA0101084600220EE004209E
:1001600022E0082020E010201EE020201CE040209B
:100170001AE0802018E040F2001015E00F49884294
:10018000EDD00F498842ECD00E498842EBD00E49A1
:100190008842EAD00D498842E9D00D498842E8D02A
:1001A0000C498842E7D010460B49096841EA000231
:1001B00009490A6001B0704700FCFFFF00080140D8
:1001C000000C0140001001400014014000180140E3
:1001D000001C0140002001401810024083B0CDF8FF
:1001E00000E000F0FF031A09104603F00F02134667
:1001F00014E0194A02921FE0184A02921CE0184AC1
:10020000029219E0174A029216E0174A029213E08E
:10021000164A029210E0164A02920DE00028E8D039
:100220000128E9D00228EAD00328EBD00428ECD03A
:100230000528EDD00628EED0012212B29A40ADF882
:10024000042002980A46BDF8041000F013F8DDF807
:1002500000E003B0704700BF00080140000C0140FF
:10026000001001400014014000180140001C014032
:100270000020014081B0CDF800E08CB21546774BEC
:1002800000EA03031E461846FFF762FFB4F1FF0FB2
:100290000CD1734B9D4203D14FF033333360D9E01F
:1002A000422D03D14FF044333360D3E04FF6FF7358
:1002B0009C4214D16A4B9D4207D14FF033333360D7
:1002C000341D4FF033332360C4E0422D07D14FF08B
:1002D00044333360341D4FF044332360BAE00021CF
:1002E000002005F001030BB100211DE005F0020321
:1002F00033B105F4C0730BB1082100E0042113E011
:1003000005F0040333B105F020030BB1042100E034
:10031000002109E005F0080333B105F020030BB11B
:100320000C2100E00821FFE74E4B05EA03030BB167
:10033000032009E005F400730BB1022004E005F48A
:1003400080630BB10120FFE705F00C030BB1014303
:10035000FFE704F0FF039BB2002B3BD0376800207F
:100360001FFA84F832462E4608282CD24FF001039B
:1003700003FA00F408EA0403A34222D185004FF0F7
:100380000F03AB40DB4307EA030401FA05F344EA39
:1003900003031D4606F48173B3F5817F05D102F294
:1003A00014044FF001038340236006F08203822B84
:1003B00005D102F210044FF00103834023602F4661
:1003C000FFE7401CD0E717601FFA88F00F46314660
:1003D000164602E00F462946A0B2B0F1FF0F39D908
:1003E000331DD3F800800022082A30D202F208041C
:1003F0004FF0010303FA04F400EA0403A34224D1FA
:1004000095004FF00F03AB40DB4308EA030807FAFF
:1004100005F348EA030801F48173B3F5817F07D13E
:1004200006F2140502F208044FF00103A3402B600A
:1004300001F08203822B07D106F2100502F20804B4
:100440004FF00103A3402B60FFE7521CCCE7331DA4
:10045000C3F80080DDF800E001B0704700FCFFFF4A
:10046000140008000008080081B000F20C021160BE
:1004700000F208021368C3F3000202B9F8E700F2C1
:100480000C02126890B201B07047FFFF81B00023E8
:100490000360CB009BB242EA030304689BB244EAC8
:1004A00003030360051D13141C462B6864F38203C9
:1004B0002B6000F21C0500242B6864F3CB232B6017
:1004C0000124036864F38613036001B07047FFFFE3
:1004D00081B0CDF800E0012252B23E490A6000F23C
:1004E00068010B686FF0006103EA0102144603F033
:1004F0000061C90E0B4602F00041B1F1004F02D17C
:1005000035490A6801E035490A6804F47021090C8C
:100510000E464FF6FF7104EA01010D4604F4401146
:10052000B1F5401F0DD16FF0706102EA01010E4676
:100530002A490A686FF070610A4028490A60324609
:1005400016E004F48011B1F5801F09D14FF00301CA
:10055000B140C94302EA010141F070610A4607E077
:10056000610D090105FA01F1C9430A4042F07062C8
:100570002BB1610D090105FA01F10A43FFE704F00F
:100580000041B1F1004F02D113490A6001E0134963
:100590000A6040F2000A81464FEA8A0109EB010134
:1005A0000968B1F1FF3F10D009F134014FEA8A0325
:1005B000C91809680A4609EB03010968084611468B
:1005C000FFF70CFE0AF1010AE6E7DDF800E001B0F2
:1005D000704700BF000342421C000140040001407C
:1005E00083B0CDF800E08DF8040002910B4C0C4B69
:1005F0001C600C4C0C4B1C60012464B20B4B1C6047
:100600001046FFF765FF029A9DF804100848FFF7AF
:100610003DFFDDF800E003B0704700BFFFFFFFFFC4
:1006200008000020350600000C000020BC034242F8
:10063000003C004081B0CDF800E081B20348FFF7F4
:1006400013FFDDF800E001B0704700BF003C004040
:1006500081B0CDF800E081B20348FFF705FFDDF877
:1006600000E001B0704700BF0038004081B0CDF815
:1006700000E081B20348FFF7F7FEDDF800E001B0CB
:10068000704700BF0030014081B0CDF800E04FF06E
:10069000420289B2FFF7EEFDDDF800E001B07047DD
:1006A00081B0CDF800E0044A89B2FFF7E3FDDDF840
:1006B00000E001B0704700BF140008000148006866
:1006C000704700BF2C01224201480068704700BFFC
:1006D0002801224201480068704700BF348122424D
:1006E00001480068704700BF288122420148006825
:1006F000704700BF0001214201480068704700BFF9
:100700003001224201480068704700BF08012242C0
:10071000026803490A60011D0A6802490A607047BD
:10072000280000202C00002000F230031A680B493A
:100730000A6003F218010A6809490A6003F21C0101
:100740000A6808490A6000F208010A6806490A6056
:10075000011D0A6805490A60704700BF18000020A3
:10076000140000201C000020200000202400002095
:1007700083B0CDF800E08AB2014690B283B2421E47
:1007800090B26BB10A78D4B2ADF804000291A0B275
:10079000054C2468A0470299BDF80400491CEDE708
:1007A000DDF800E003B07047280000200148006831
:1007B000704700BF1001214240F27707C0F20007E6
:1007C0007F1EFDD100BF00BF00BF00BF00BF70474C
:1007D00001490860704700BF9C81214201480068C0
:1007E000704700BF3081224201480068704700BF57
:1007F0001881224201480068704700BF3001224240
:1008000001480068704700BF3081224201480068FB
:10081000704700BF1C81214281B0CDF800E000206C
:1008200000F038FBDDF800E001B0704701480068D7
:10083000704700BF1481224201480068704700BF22
:100840001881214201480068704700BF2C012242F4
:1008500001480068704700BF1881214201480068C4
:10086000704700BF1C81214201480068704700BFEB
:100870002481224201480068704700BF2081224243
:1008800001480068704700BF388122420148006873
:10089000704700BF2801224201480068704700BF2E
:1008A0001401214201480068704700BF0C01224238
:1008B00001490860704700BF9881214201490860E2
:1008C000704700BFB001224201490860704700BF75
:1008D000AC01224201490860704700BFA8012242D2
:1008E00001490860704700BF80012142014908604A
:1008F000704700BFA081224201490860704700BFD5
:10090000A481224201490860704700BFA8812242A9
:1009100081B0CDF800E0011D0A680168C8B2114637
:10092000034AFFF75DFE0020DDF800E001B07047EC
:100930007C13000081B0CDF800E0A9E0012905D1C9
:1009400040F220016548FFF79FFE04E040F22001DD
:100950006248FFF7A5FEBBE0012905D140F208017E
:100960005F48FFF791FE04E040F208015C48FFF7A2
:1009700097FEADE0012905D144F200015948FFF787
:1009800083FE04E044F200015648FFF789FE9FE031
:10099000012905D140F200415148FFF775FE04E0FE
:1009A00040F200414E48FFF77BFE91E0012905D15E
:1009B00040F600014A48FFF767FE04E040F60001F8
:1009C0004748FFF76DFE83E0012905D141F20001A0
:1009D0004348FFF759FE04E041F200014048FFF7A9
:1009E0005FFE75E0012905D141F200013D48FFF7A6
:1009F0004BFE04E041F200013A48FFF751FE67E088
:100A0000012905D140F600013648FFF73DFE04E01C
:100A100040F600013348FFF743FE59E0012905D1B4
:100A200040F240012F48FFF72FFE04E040F2400162
:100A30002C48FFF735FE4BE0012905D140F220019B
:100A40002848FFF721FE04E040F220012548FFF787
:100A500027FE3DE0012905D140F240012248FFF781
:100A600013FE04E040F240011F48FFF719FE2FE09B
:100A7000012905D140F280011B48FFF705FE04E083
:100A800040F280011848FFF70BFE21E0012020E032
:100A900000283FF453AF01283FF45EAF02283FF433
:100AA00069AF03283FF474AF04283FF47FAF0528F3
:100AB0003FF48AAF06283FF495AF0728A0D0082856
:100AC000ACD00928B8D00A28C4D00B28D0D0DDE794
:100AD0000020DDF800E001B0704700BF00080140D1
:100AE0000010014000140140000C014081B0CDF81D
:100AF00000E0A9E0012905D140F210016548FFF7A7
:100B0000C3FD04E040F210016248FFF7C9FDBBE0FD
:100B1000012905D140F204015F48FFF7B5FD04E06B
:100B200040F204015C48FFF7BBFDADE0012905D1AF
:100B300042F200015948FFF7A7FD04E042F200012C
:100B40005648FFF7ADFD9FE0012905D140F2004175
:100B50005148FFF799FD04E040F200414E48FFF78D
:100B60009FFD91E0012905D140F600014A48FFF7B9
:100B70008BFD04E040F600014748FFF791FD83E05C
:100B8000012905D141F200014348FFF77DFD04E052
:100B900041F200014048FFF783FD75E0012905D1CE
:100BA00040F201013B48FFF76FFD04E040F2010114
:100BB0003848FFF775FD67E0012905D140F2004193
:100BC0003648FFF761FD04E040F200413348FFF78B
:100BD00067FD59E0012905D140F200212F48FFF7B8
:100BE00053FD04E040F200212C48FFF759FD4BE093
:100BF000012905D140F200112848FFF745FD04E026
:100C000040F200112548FFF74BFD3DE0012905D1D9
:100C100040F240012248FFF737FD04E040F2400176
:100C20001F48FFF73DFD2FE0012905D140F280016B
:100C30001B48FFF729FD04E040F280011848FFF748
:100C40002FFD21E0012020E000283FF453AF0128D0
:100C50003FF45EAF02283FF469AF03283FF474AF5E
:100C600004283FF47FAF05283FF48AAF06283FF4FD
:100C700095AF0728A0D00828ACD00928B8D00A28FA
:100C8000C4D00B28D0D0DDE70020DDF800E001B0B3
:100C9000704700BF000801400010014000140140EF
:100CA000000C014081B0CDF800E0011D0A68016828
:100CB000C8B21146034AFFF793FC0020DDF800E0BC
:100CC00001B070477C13000001490860704700BF05
:100CD000B481224201490860704700BF8801224266
:100CE00001490860704700BF900121420149086036
:100CF000704700BF9881214201490860704700BFDA
:100D0000B081224201490860704700BFB001224211
:100D100001490860704700BFAC01224201490860E8
:100D2000704700BF9881224201490860704700BFA8
:100D3000B081224201490860704700BF948122427D
:100D400001490860704700BF9C8121420149086049
:100D5000704700BF9401214201490860704700BFFD
:100D60008C01224201490860704700BFA80122425D
:100D700001490860704700BFB881224281B0CDF8B8
:100D800000E0034C2468A047DDF800E001B07047A4
:100D90001800002081B0CDF800E05FFA81F95FFA19
:100DA00082FA0FE05FFA8AF15FFA89F0FFF79EFEA0
:100DB0000DE05FFA8AF15FFA89F0FFF7BBFD06E00C
:100DC000012004E00028EDD00128F2D0F8E7DDF89A
:100DD00000E001B07047FFFF81B0CDF800E0034CA8
:100DE0002468A047DDF800E001B07047140000203F
:100DF0000CE0012013E040F2011010E041F211106C
:100E00000DE045F255500AE0012008E00028F0D03E
:100E10000128F0D00228F1D00328F2D0F4E770477F
:100E200082B0CDF800E01122B0FBF2F102FB11011B
:100E3000C9B2C8B200290BD9421E12B2012109B2AF
:100E400091408DF8040088B200F024F89DF8040069
:100E500008B9FFF7E1FCDDF800E002B07047FFFFE2
:100E600081B0CDF800E003460846FFF751FC184674
:100E7000FFF75AFC0020054C2468A0470120044CD1
:100E80002468A047DDF800E001B070472000002092
:100E90002400002082B0CDF800E001AA010A117000
:100EA000521C00F0FF0111700020094C2468A0477B
:100EB00001A908460221FFF75BFCFFF77DFC01203A
:100EC000034C2468A047DDF800E002B0704700BF83
:100ED0002000002081B0CDF800E0034C2468A0473A
:100EE000DDF800E001B070471C00002081B0CDF8B3
:100EF00000E08B4609E05846FFF70AFD0AE0584635
:100F0000FFF7D0FE06E0012004E00028F3D001281E
:100F1000F5D0F8E7DDF800E001B07047FFFFFFFF14
:100F200044F67F77C0F212077F1EFDD100BF00BFDD
:100F300000BF00BF00BF704781B01548006840F097
:100F4000010113480160134913480160104801680A
:100F5000124801400E4801600D4801686FF480207E
:100F600001400B4801600C4801686FF4FE0001402D
:100F700009480160064801686FF0A050014004482C
:100F800001604FF000010648016001B0704700BFEA
:100F9000001002400000FFF004100240FFFFF6FEC8
:100FA0002C10024082B0CDF800E051480088FFF7D5
:100FB00071FFFFF78FFF002800F0528001214D489C
:100FC00001704D480078002849D101214A4801703C
:100FD0004A4B1878421C12B2052109B292FBF1F07B
:100FE00001FB10201870C0B2042832D10021424801
:100FF000017041480078112810D24AF6AA20FFF764
:1010000049FFFFF78DFF45F25550FFF743FFFFF70C
:1010100087FF39490878401C0870EAE70021364804
:1010200001703548007811280AD233480078FFF75C
:10103000F7FEFFF775FF30490878401C0870F0E7AD
:1010400000212E4801700020FFF7D2FE28490880B9
:1010500005E02A480078FFF7CBFE2549088002E02A
:10106000002125480170FFF7B7FE8DF80400FFF757
:1010700085FE9DF8041081420ED1002120480170A8
:10108000FFF7AAFE20B1FFF779FE08B1012100E0C9
:1010900000211C48017026E001211B4801701848FE
:1010A000007801281FD0012115480170FFF794FE38
:1010B0001449097881420BD00D4A1088410089B249
:1010C00010460088C00B80B241EA000010800AE0A0
:1010D000074A1088410889B210460088C00380B2D0
:1010E00041EA00001080DDF800E002B0704700BF68
:1010F0000000002002000020030000200400002067
:1011000005000020060000200700002081B01CF828
:10111000019B0BF8019BBBEB0A0FF8D101B07047A4
:1011200081B04FF000094FF0000CBDEB0A0F04DC5A
:10113000BDEB0B0F01DBD446EA464BF8049BBBEB3F
:101140000A0FFAD1BCEB0A0F05DDE246D9F800B070
:101150000BF1040BF1E701B07047FFFF81B0CDF850
:1011600000E0012206210020FFF714FE01220721E2
:101170000020FFF70FFE012200210020FFF70AFEEA
:10118000002201210020FFF705FE0022022100209D
:10119000FFF700FE054801460020FFF7A7FEFFF716
:1011A000BFFEDDF800E001B0704700BF481400004A
:1011B00081B0CDF800E00B490B48FFF751FE01214B
:1011C0000A48018000210A48017001210948017084
:1011D000002109480170012108480170DDF800E094
:1011E00001B0704750140000E81300000000002018
:1011F000030000200200002005000020070000205E
:1012000081B0FEE701B0704781B002490248016039
:1012100001B07047401901001000002000F00CF8E8
:1012200000F01AF9FFF7F0FFFFF798FFFFF7C0FF94
:10123000FFF7B8FEFCE7FEE781B0CDF800E0464AD4
:10124000464B474C47494BF68030814206D94648C9
:10125000006840F002014448016011E045F6C050CA
:10126000814206D94048006840F001013E480160D3
:1012700006E03D4801686FF0070001403A48016010
:10128000FFF75AFE3948036039480460394802EADA
:1012900000013948016002F0010040B119463648AA
:1012A000006800F00200002800D1F8E700E01946CD
:1012B00002F4803040B10B462F48006800F4003043
:1012C000002800D1F8E700E00B4602F0805068B13A
:1012D0002948006840F0805127480160264800688E
:1012E00000F00050002800D1F8E7FFE702F080602E
:1012F00078B12148006840F080611F4801601146C4
:101300001A461D48006800F00060002800D1F8E788
:1013100001E011461A4601F0807070B1164800686D
:1013200040F080711448016011461348006800F0D5
:10133000007000B9F9E70A46FFE70C48006800F0C2
:101340000C01900000F00C00814200D0F5E7DDF8C0
:1013500000E001B0704700BF8100010502841D005C
:101360004406010040190100002002400410024020
:101370002C100240FFFF0F00001002402A00000066
:101380002B0000002C000000FFFFFFFF000000000A
:10139000000000000000000000000000000000004D
:1013A000000000000000000000000000000000003D
:1013B00018080000180800001808000000000000CD
:1013C000000000000000000000000000000000001D
:1013D000000000000000000000000000000000000D
:1013E0000000000000112008E10C0000D50C0000F6
:1013F000C90C0000D5080000C9080000BD080000A5
:10140000E108000005090000F9080000ED080000EF
:10141000ED0C0000410D0000AD07000005070000C5
:10142000D5060000C9060000BD060000F906000050
:10143000ED060000E10600006908000075080000E4
:10144000510800005D0800000700000004030000D0
:1014500035060000FFFFFFFF00B5DFF810B0DFF832
:1014600010A0FFF75DFE00BD704700BF0000002028
:1014700030000020FFFFFFFFFFFFFFFFFFFFFFFF28
:00000001FF
