:1000000033EF07F00000000000EF00F000000000F8
:0A0010000000000000000000F3D71C
:0C001C0055B002D0899201D089821200F8
:0C00280055B002D0899801D089881200E0
:0C00340055B002D08B9801D08B881200D0
:0C00400055B002D08B9C01D08B8C1200BC
:0C004C0055B002D08B9601D08B861200BC
:0C00580055B002D08B9A01D08B8A1200A8
:0C00640055B002D08B9401D08B841200A8
:0C00700055B002D08B9801D08B88120094
:0C007C0055B002D08D9201D08D82120090
:0C00880055B002D08B9601D08B86120080
:0C00940055B002D08B9E01D08B8E120064
:0C00A00055B002D08B9001D08B80120074
:0C00AC0055B002D08D9001D08D80120064
:0C00B80055B002D0899001D08980120060
:1000C40055C0C9FF016A0150000A05E1000EC7B01E
:0C00D400010E016EF8D7C9CF01F0120038
:1000E00055C06AFF016A0150000A05E1000E68B0C0
:0C00F000010E016EF8D76ACF01F012007B
:0C00FC0055B002D08B9201D08B82120014
:0C01080055B002D08A9001D08A8012000D
:0C01140055B002D08B9A01D08B8A1200EB
:0C01200055B002D08B9601D08B861200E7
:0C012C0055B002D08B9801D08B881200D7
:0C01380055B002D08A9201D08A821200D9
:0C01440055B002D08F9001D08F801200C7
:0C01500055B002D08A9401D08A841200BD
:0C015C0055B002D08B9801D08B881200A7
:0C01680055B002D08B9A01D08B8A120097
:0C01740055B002D08B9601D08B86120093
:0C01800055B002D08B9801D08B88120083
:0C018C0055B002D08F9401D08F84120077
:0C01980055B002D08F9201D08F8212006F
:0C01A40055B002D08B9601D08B86120063
:0C01B00055B002D08B9801D08B88120053
:0C01BC0055B002D08B9E01D08B8E12003B
:0C01C80055B002D08B9C01D08B8C120033
:0C01D40055B002D08D9401D08D84120033
:0C01E00055B002D08B9601D08B86120027
:0C01EC0055B002D0899401D08984120023
:0C01F80055B002D08D9601D08D8612000B
:10020400F250026EF29E0500FF6A0150FE6E00502D
:08021400FD6E02BEF28E120025
:10021C004FC053F050C054F051C000F052C001F028
:10022C00010E515E000E525A0050011012E02AC00D
:10023C00E1FF2BC0E2FF53C0E9FF54C0EAFFEECF51
:10024C00E6FF28C000F029C001F0D6DF534A542A3B
:04025C00E3D71200D2
:0A026000350E0D6E0D2EFED71200B4
:0A026A00000E82B2010E006E1200B9
:0A027400000E82BC010E006E1200A5
:0A027E00000E82BA010E006E12009D
:0A028800000E82B8010E006E120095
:0A029200000E82B8010E006E12008B
:0A029C00000E81B0010E006E12008A
:0A02A600000E81B4010E006E12007C
:0A02B000000E86B0010E006E120071
:1002BA004CC000F0016A00C04DF0FF0E4B144E6EA8
:1002CA0026C0E1FF27C0E2FFE66A24C000F025C08D
:1002DA0001F093DF4D0E4F6E000E506E020E516EFE
:1002EA00000E526E96DFB7DF26C0E1FF27C0E2FF9D
:1002FA00010EE66E24C000F025C001F07EDF120078
:0A030A00000E86B4010E006E120012
:0A031400000E86B2010E006E12000A
:0A031E00000E82BA010E006E1200FC
:0A032800000E80B0010E006E1200FE
:0A033200000E82B0010E006E1200F2
:0A033C00000E84B2010E006E1200E4
:0A034600000E80B2010E006E1200DE
:0A035000000E82B8010E006E1200CC
:0A035A00000E82BE010E006E1200BC
:0A036400000E82B4010E006E1200BC
:0A036E00000E82B6010E006E1200B0
:0A037800000E84B0010E006E1200AA
:0A038200000E82B8010E006E12009A
:10038C00FF0E156EFF0E166EFF0E176EFF0E186E1B
:10039C00C40E1B6E000E1C6E550E1D6E000E1E6ED6
:1003AC00949A4B50040A02E1948601D09496948856
:1003BC00C66AC79CC79E4B50C6124D50C6124C50B5
:1003CC00C7124D5205E04E50000AD8B4C78C03D06A
:0A03DC004E52D8A4C78CC68A120046
:0A03E600000E82B6010E006E120038
:0A03F000000E82B6010E006E12002E
:0A03FA00000E82B6010E006E120024
:0A040400000E82BA010E006E120015
:0A040E00000E82B6010E006E12000F
:0A041800000E84B6010E006E120003
:0A042200000E84B4010E006E1200FB
:0A042C00000E82B6010E006E1200F1
:0A043600000E82B8010E006E1200E5
:0A044000000E81B2010E006E1200E2
:0A044A00000E82BC010E006E1200CD
:0A045400000E80B8010E006E1200C9
:0A045E00000E80B4010E006E1200C3
:0A046800000E82BE010E006E1200AD
:0A047200000E82B8010E006E1200A9
:10047C0048C0F6FF49C0F7FF4AC0F8FF0900F5CFA6
:10048C004BF0040E4824F66E000E4920F76E000E59
:10049C004A20F86E0900F5CF4CF0080E4824F66E91
:1004AC00000E4920F76E000E4A20F86E0900F5CFB9
:1004BC004DF00C0E4824F66E000E4920F76E000E1F
:1004CC004A20F86E0900F5CF4EF05ADF000E006E90
:0204DC0012000C
:1004DE0051D049B002D0929401D092840F0125954B
:1004EE006ED049B002D0969601D0968668D049B0AB
:1004FE0002D0969401D0968462D049B002D09496E0
:10050E0001D094865CD049B002D0949801D09488E2
:10051E0056D049B002D0949A01D0948A50D049B0A6
:10052E0002D0989001D098804AD049B002D09394CE
:10053E0001D0938444D049B002D0989401D09884CD
:10054E000F0123953CD049B002D0989201D09882E9
:10055E000F01239334D049B002D0949601D09486E3
:10056E002ED049B002D0949801D0948828D0010E94
:10057E00006E27D04850000AACE04850010AB1E0A6
:10058E004850020AB4E04850030AB7E04850040A43
:10059E00BAE04850050ABDE04850060AC0E048508F
:1005AE00070AC3E04850080AC6E04850090ACBE0E3
:1005BE0048500A0AD0E048500B0AD3E0D8D7000EB4
:0405CE00006E1200A9
:1005D20048C0F6FF49C0F7FF4AC0F8FF0900F5CF4F
:1005E20028F00900F5CF29F00900F5CF2AF009001B
:1005F200F5CF2BF0040E4824F66E000E4920F76E5C
:10060200000E4A20F86E0900F5CF2CF00900F5CF54
:100612002DF00900F5CF2EF00900F5CF2FF01200D2
:10062200300E4824006E000E4920016E000E4A2052
:10063200026E00C0F6FF01C0F7FF02C0F8FF09001A
:10064200F5CF3CF00900F5CF3DF00900F5CF3EF0C3
:100652000900F5CF3FF0180E0024F66E000E0120BF
:10066200F76E000E0220F86E0900F5CF38F009008F
:10067200F5CF39F00900F5CF3AF00900F5CF3BF09C
:100682001C0E0024F66E000E0120F76E000E0220F2
:10069200F86E0900F5CF30F00900F5CF31F009000E
:1006A200F5CF32F00900F5CF33F0080E4824F66E8C
:1006B200000E4920F76E000E4A20F86E0900F5CFB1
:1006C20024F00900F5CF25F00900F5CF26F0090046
:1006D200F5CF27F0040E4824F66E000E4920F76E7F
:1006E200000E4A20F86E0900F5CF34F00900F5CF6C
:1006F20035F00900F5CF36F00900F5CF37F01200DA
:1007020048C0F6FF49C0F7FF4AC0F8FF0900F5CF1D
:100712004BF0040E4824F66E000E4920F76E000ED0
:100722004A20F86E0900F5CF4CF0080E4824F66E08
:10073200000E4920F76E000E4A20F86E0900F5CF30
:100742004DF00C0E4824F66E000E4920F76E000E96
:100752004A20F86E0900F5CF4EF017DE000E006E4B
:02076200120083
:100764004DD049B002D0929201D092820F012593CC
:100774006AD049B002D0929801D0928864D049B02E
:1007840002D0969201D096825ED049B002D094965F
:1007940001D0948658D049B002D0949801D094885E
:1007A40052D049B002D0949A01D0948A4CD049B026
:1007B40002D0949401D0948446D049B002D093924C
:1007C40001D0938240D049B002D0949E01D0948E3F
:1007D4003AD049B002D0949C01D0948C34D049B022
:1007E40002D0949601D094862ED049B002D0949829
:1007F40001D0948828D0010E006E27D04850000AFA
:10080400B0E04850010AB5E04850020AB8E0485048
:10081400030ABBE04850040ABEE04850050AC1E0A0
:100824004850060AC4E04850070AC7E04850080A7E
:10083400CAE04850090ACDE048500A0AD0E04850BE
:0C0844000B0AD3E0D8D7000E006E1200A3
:100850000134083609360450085E0550D8A0053C1E
:10086000095E003601360F0E0C6E0134083609366B
:10087000045000A006D0085E0550D8A0053C095ED3
:1008800005D008260550D8B0053C092600360136AB
:100890000C2EEBD700B006D0045008260550D8B077
:0808A000053C092600001200CE
:1008A80048C0F6FF49C0F7FF4AC0F8FF0900F5CF76
:1008B8004BF0040E4824F66E000E4920F76E000E29
:1008C8004A20F86E0900F5CF4CF0080E4824F66E61
:1008D800000E4920F76E000E4A20F86E0900F5CF89
:1008E8004DF00C0E4824F66E000E4920F76E000EEF
:1008F8004A20F86E0900F5CF4EF044DD000E006E78
:020908001200DB
:10090A004DD049B002D0929001D092800F0125912A
:10091A006AD049B002D0949001D0948064D049B092
:10092A0002D0969001D096805ED049B002D09496BB
:10093A0001D0948658D049B002D0949801D09488B6
:10094A0052D049B002D0949A01D0948A4CD049B07E
:10095A0002D0949201D0948246D049B002D09390AA
:10096A0001D0938040D049B002D0949E01D0948E99
:10097A003AD049B002D0949C01D0948C34D049B07A
:10098A0002D0949601D094862ED049B002D0949881
:10099A0001D0948828D0010E006E27D04850000A52
:1009AA00B0E04850010AB5E04850020AB8E04850A1
:1009BA00030ABBE04850040ABEE04850050AC1E0F9
:1009CA004850060AC4E04850070AC7E04850080AD7
:1009DA00CAE04850090ACDE048500A0AD0E0485017
:0C09EA000B0AD3E0D8D7000E006E1200FC
:0809F6004B6A4C6A5FDC120041
:1009FE00086A080E0C6E003408360450085ED8B033
:0E0A0E0002D00826D89000360C2EF5D7120024
:0E0A1C003CC000F03DC001F002EC01F0120001
:100A2A0015D043C048F044C049F06ADF19D043C02A
:100A3A0048F044C049F091DE13D043C048F044C0A6
:100A4A0049F048DD0DD0010E006E0AD04250000A6E
:100A5A00E8E04250010AEBE04250020AEEE0F3D726
:020A6A00120078
:100A6C001BD043C048F044C049F045C04AF043DEB7
:100A7C001DD043C048F044C049F045C04AF0F8DCF2
:100A8C0015D043C048F044C049F045C04AF006DFD9
:100A9C000DD0010E006E0AD04250000AE2E0425026
:0E0AAC00010AE7E04250020AECE0F3D7120024
:100ABA0019D0010E006E000E016E21D0010E006EDB
:100ACA00010E016E1CD0110E006E110E016E17D0B0
:100ADA00550E006E550E016E12D0010E006E000EFC
:100AEA00016E0DD04250000AE4E04250010AE6E0ED
:100AFA004250020AE8E04250030AEAE0EED7120046
:0E0B0A0038C000F039C001F002EC01F012001A
:100B18000450000A08E10550000A05E1FF0E006EC6
:100B28007F0E016E57D00D6A096A086A01500010DD
:100B3800D8B4000C015005180A6E0ABE0D1E0B6AC7
:100B480005AE05D0041E051E042AD8B4052A01AE38
:100B580005D0001E011E002AD8B4012A0150051034
:100B68000A6E0ABE10D070DE0BB020D00DAE000C9D
:100B7800001E011E002AD8B4012A081E091E082AD0
:100B8800D8B4092A000C05AE0DD001BE07D001501B
:100B9800096E0050086E016A006AE8D7016A006AA7
:100BA800002A000C011E001E0B2ADDD7082AD8B423
:100BB800092A0450085CD8A4D9D70550095CD8A4E0
:100BC800D5D7096A086A002AD8B4012A01AECED757
:060BD8000000FF0C1200FA
:100BDE00110E046E42C000F00BDF08C000F000C022
:100BEE0042F00050000812E24204006E016A000E4C
:100BFE00015A010E4B6E000E4C6E005005E04B3646
:100C0E004B904C36FF0FFAD75DEC01F04250000AC4
:060C1E0001E1EADE120014
:0E0C240030C000F031C001F002EC01F012000F
:100C3200090E0B6E1E0E0C6EE40E0D6E0D2EFED7FF
:0C0C42000C2EFCD70B2EFAD7000012007D
:100C4E0045C048F046C049F047C04AF0BBDC42C040
:100C5E0048F043C049F044C04AF0DCDC26C0E1FF56
:100C6E0027C0E2FFE66A24C000F025C001F002ECC6
:100C7E0001F036C0E1FF37C0E2FF010EE66E34C070
:0C0C8E0000F035C001F002EC01F0120093
:100C9A00426A060E436E010E446EC2DE426A070EB7
:100CAA00436E010E446EBCDE426A436A010E446E14
:100CBA00B7DE426A010E436E446AB2DE426A020E2F
:100CCA00436E446AADDE426AD00E436E0E0E446E27
:0A0CDA00000E456EC6DEA8DF120012
:100CE40020C04BF021C04CF05DEC01F099DF0052C4
:100CF40049E0010E236E1F50000A43E1010E1F6EEE
:100D04001A50010F006E016A000E0122050E046ED6
:100D1400000E056EFFDE08C000F009C001F000C03F
:100D24001AF00050040A26E11F6A110E1F5C10E23B
:100D3400AA0E4B6EAA0E4C6E5DEC01F078DF550ED8
:100D44004B6E550E4C6E5DEC01F071DF1F2AEDD732
:100D54001F6A110E1F5C06E21FC042F03EDF67DF10
:100D64001F2AF7D71A6A426AA6DE00C020F001C023
:100D740021F007D01AC042F09EDE00C020F001C06E
:100D840021F001D01F6ABFDE00C041F045DE4150B2
:100D940000180EE1226AB7DE005206E03DDE005282
:100DA40003E0010E006E01D0006A00C040F040D0A4
:100DB400010E196E010E22183BE0010E226EA3DE15
:100DC400405000181BE020C003F021C004F003369B
:100DD400039004360F0E026E20C000F021C001F013
:100DE400025005E001320032019EFF0FFAD7005095
:100DF4000310206E04500110216E1AD020C003F09D
:100E040021C004F004320332049E0F0E026E20C08F
:100E140000F021C001F0025005E0003600900136D8
:100E2400FF0FFAD700500310206E04500110216EFA
:020E34001200AA
:100E3600700E426E0E0E436E000E446EE00E456E50
:100E46000E0E466E000E476EFFDE010E206E000E81
:100E5600216E1F6A010E236E226A010E196E1200A0
:0A0E660019DFE6DF3CDFFED7FFD7FF
:100E7000B8005500A0005500AC00550020015500F9
:100E80002C01550014015500FC00550008015500C7
:100E900094005500400055004C00550034005500AA
:100EA0002803000032030000780300006E030000F6
:100EB000820300007E0200006A0200009C02000023
:100EC0005A03000074020000E60300005003000013
:100ED000020000000000000000000000010000000F
:080EE000C4005500FFFFFFFFF5
:020000040030CA
:0E00000015137F7CF98B91FFFFC0FFE0FF40DE
:00000001FF
